:020000040800F2
:1000000000000120C5020008CB020008CF02000852
:1000100041030008450300088D03000800000000AC
:10002000000000000000000000000000D5030008F0
:10003000D903000800000000DD030008990F000844
:10004000F1030008F1030008F1030008F1030008C0
:10005000F1030008F1030008390B0008550B0008F4
:10006000F1030008F1030008F1030008F1030008A0
:10007000F1030008F1030008F1030008F103000890
:10008000F1030008F1030008F1030008000000007C
:10009000000000000000000000000000F103000864
:1000A000F1030008F1030008F1030008F103000860
:1000B000F9130008D9140008B1150008F10300086D
:1000C000F1030008F1030008F1030008F103000840
:1000D000F1030008F1030008F1030008000000002C
:1000E000F1030008F1030008F1030008000000001C
:1000F000000000000000000000000000F103000804
:1001000000000000F1030008F1030008F1030008FB
:1001100000000000000000000000000000000000DF
:10012000F1030008F1030008F1030008F1030008DF
:10013000F1030008000000000000000000000000C3
:10014000000000000000000000000000F1030008B3
:10015000F1030008F1030008F1030008F1030008AF
:10016000F1030008F1030008000000000000000097
:10017000000000000000000000000000000000007F
:1001800000000000F1030008000000000000000073
:10019000F103000800B583B000F0BAF9384B394AD2
:1001A0001360394A1360394900E02146384B9942BF
:1001B0000BD20A684B6801F10C0488689842F4D9A4
:1001C0001168196004330432F8E72E4B1A68314B7A
:1001D0009A4200D0FEE72C4B1A682F4B9A42F9D175
:1001E000274B2E4A13602E4A13602E4B05E0002049
:1001F000106004329342FAD80B462B4A934204D241
:10020000194651F8082B5B68F4E7244B1B6813B9B7
:10021000234B1B6803B1FEE700F086F9694601A88D
:1002200000F022F9214C224BE41AA4100025AC4224
:1002300014DC204C204BE41AA4100025AC4213DC43
:100240000099019801F020FA05461C4C1C4BE41A59
:10025000A410002C0EDC284600F0E2F8144B53F8F2
:10026000253098470135E2E7134B53F8253098477E
:100270000135E3E7013C124B53F824309847E8E797
:10028000BABADECA0000002078000020F40300089B
:100290000C04000878563412325476987C00002002
:1002A0006C0200200C0400081C0400081C04000858
:1002B0001C0400081C0400081C0400081C0400089E
:1002C0001C04000808B5FFF765FF00BEFEE71EF03E
:1002D000040F0CBFEFF30880EFF309807146414A29
:1002E00010472DE9F04182B004468846124B5E6B00
:1002F0009F6B9D6A1B6B13F0020F03D00E4BDB6AE2
:10030000002B0CDB0D4800F0B7F8CDF800803B4621
:1003100032462946204600F00BF900BEFEE74BF6B8
:10032000AB6100F07FF90028ECD0034B4FF00042A6
:10033000DA6202B0BDE8F08100ED00E014230008AD
:1003400000BEFEE71EF0040F0CBFEFF30880EFF3D2
:1003500009807146244A10472DE9F04182B00446D5
:100360008846084B5E6B9F6B9D6A074800F084F8D7
:10037000CDF800803B4632462946204600F0D8F8AA
:1003800000BEFEE700ED00E0242300081EF0040F8D
:100390000CBFEFF30880EFF309807146134A104752
:1003A0002DE9F04182B004468846084B5E6B9F6B96
:1003B0009D6A074800F060F8CDF800803B46324661
:1003C0002946204600F0B4F800BEFEE700ED00E04C
:1003D0003023000800BEFEE700BEFEE700BEFEE7D9
:1003E00070470000E302000859030008A103000859
:0403F00000BEFEE766
:1003F4006CE70308000000207C0000206CE7030881
:1004040000000010000000107C000020700200209A
:080414000000001000000010C0
:10042000FEE7000008B503460C4A12685AB10B4AB1
:100430001068033323F003030344094A934206D8A8
:10044000064A136008BD054A06491160EFE701F04E
:100450005DFA0C2303604FF0FF30F3E780000020CB
:1004600000FC00207002002001230360014B0B60A0
:10047000704700BF040000200FB400B583B004AB88
:1004800053F8042B01938021064801F071FA0028EB
:1004900003DD0146034800F037F803B05DF804EBD4
:1004A00004B07047880000202DE9F04385B0044671
:1004B0000F4643560BB10E461EE004252846214642
:1004C000ABBE0446384605B0BDE8F08314F9011B05
:1004D00004AA1A4402F8101C0133AB42F6D304AA52
:1004E0001344002203F8102C4FF00408E94640465C
:1004F0004946ABBE8046761B002EE3D03546102E13
:1005000028BF10250023E8E708B5FFF7CDFF08BD99
:1005100008B500F097F8024A024B9A6008BD00BF88
:100520000000000800ED00E008B500F0ABF808BDE1
:10053000F8B504460D4617461E462748FFF79CFFB0
:1005400021682648FFF798FF61682548FFF794FF68
:10055000A1682448FFF790FFE1682348FFF78CFF6C
:1005600021692248FFF788FF61692148FFF784FF6E
:10057000A1692048FFF780FFE1691F48FFF77CFF72
:100580001E48FFF779FF29461D48FFF775FF1D4CF0
:10059000E16A1D48FFF770FF216B1C48FFF76CFFF5
:1005A000E16B1B48FFF768FF15F0800F0AD115F4C7
:1005B000004F0CD11748FFF75FFF06991648FFF769
:1005C0005BFFF8BD39461548FFF756FFEFE73146A8
:1005D0001348FFF751FFEDE7F82100080822000853
:1005E00018220008282200083822000848220008A3
:1005F0005822000868220008782200088822000893
:100600009422000800ED00E0A4220008B4220008B3
:10061000C4220008F4220008FC220008D4220008AA
:10062000E422000883691A888A4201D000207047BA
:100630000268033A012A03D802338361012070471C
:10064000002070470C4B1A6842F001021A6000212A
:1006500099601A6822F0847222F480321A60074A84
:100660005A601A6822F480221A60D960044B4FF055
:1006700000629A60704700BF0038024010300024CA
:1006800000ED00E0224B9B6803F00C03042B14D018
:10069000082B16D01BB11F4B1F4A1A6002E01D4BDE
:1006A0001D4A1A601A4B9B68C3F303131B4AD15CA3
:1006B000184A1368CB4013607047164B164A1A60ED
:1006C000F0E7134B5A685B6803F03F0312F4800FA6
:1006D00013D0114AB2FBF3F20D4B5B68C3F38813DE
:1006E00003FB02F30A4A5268C2F30142013252008C
:1006F000B3FBF2F3074A1360D4E7074AB2FBF3F205
:10070000034B5B68C3F3881303FB02F3EAE700BF04
:10071000003802400C0000200024F40040230008B0
:1007200008B501220021104600F022FA0123002220
:100730001146184600F066FA01221146104600F0F4
:1007400017FA012300221946184600F05BFA01222D
:100750000521104600F00CFA01230022052118465D
:1007600000F050FA01220621104600F001FA0123A0
:1007700000220621184600F045FA01220721104602
:1007800000F0F6F9012300220721184600F03AFA9A
:1007900001220821104600F0EBF901230022082174
:1007A000184600F02FFA01220921104600F0E0F966
:1007B000012300220921184600F024FA01220A210F
:1007C000104600F0D5F9012300220A21184600F056
:1007D00019FA08BD70B505460E46224B00221A6074
:1007E0003BE0EA5C02F001020021012000F072FA15
:1007F0001C4C2368EA5CC2F340020121084600F069
:1008000069FA2368EA5CC2F340120521012000F076
:1008100061FA2368EA5CC2F380120621012000F02D
:1008200059FA2368EA5CD2090721012000F052FA44
:1008300000220821012000F04DFA002209210120A8
:1008400000F048FA00220A21012000F043FAFA20C1
:1008500000F06EFD236801332360024B1B68B34236
:10086000BFD970BD080100201A4B1B78823B152BA5
:100870002FD8DFE803F0272E2E2E0F1B2E2E2E2E24
:100880002E2E0B132E2E171F2E2E232B124B012232
:100890001A707047104B02221A7070470E4B0322D9
:1008A0001A7070470C4B04221A7070470A4B0522CD
:1008B0001A707047084B06221A707047064B0722C1
:1008C0001A707047044B08221A707047024B0922B5
:1008D0001A7070470C010020D801002008B51F4B8A
:1008E00000221A701E4B1A6842F20F739A422CD9DA
:1008F0001B4B1A6843F698239A4226D8002309E036
:10090000012202FA01F11548027822EA010202707E
:100910000133DBB2072B16D8194603F11100104A38
:1009200052F82020B2F5FA6FEAD30D4A52F820208F
:10093000B2F5166FE4D801229A40084801781143B5
:10094000C9B20170E4E7FFF78FFF0023054A137077
:10095000034A1360044A137008BD00BF0C01002055
:1009600010010020D90100200D01002038B50E4BE8
:100970001B7883B10D4C2578EDB200F0EBFA0C4BEF
:1009800043F825000B490C4800F0F2FA23780133B4
:10099000DBB2237038BD0749074800F0E9FA024B83
:1009A00001221A70F6E700BFD90100200D010020D6
:1009B00010010020DD08000840420F0008B50122A8
:1009C0000321002000F0D4F800231A460321184622
:1009D00000F018F901220C21104600F0C9F800239C
:1009E0001A460C21012000F00DF901220D211046BC
:1009F00000F0BEF800231A460D21012000F002F994
:100A000001220E21104600F0B3F800231A460E21F1
:100A1000012000F0F7F801220D21104600F0A8F89F
:100A200000231A460D21012000F0ECF801220E21CE
:100A3000022000F09DF800231A460E21022000F04B
:100A4000E1F801220D21022000F092F800231A465D
:100A50000D21022000F0D6F801220F21022000F023
:100A600087F800231A460F21022000F0CBF808BDBA
:100A700030B483080A4A023352F8234000F00300DE
:100A800080000F25854024EA050442F8234052F8EF
:100A900023408140214342F8231030BC704700BFFF
:100AA0000038014011B1012908D0704708490B688E
:100AB000012202FA00F018430860704704490B68ED
:100AC000012202FA00F023EA00000860704700BF2C
:100AD000003C0140012903D071B1022918D07047B0
:100AE000114BD968012202FA00F00143D9609A68DB
:100AF00022EA0000986070470B4B9968012202FAC5
:100B000000F001439960DA6822EA0000D86070477B
:100B1000054A9168012303FA00F001439160D3680C
:100B20001843D060704700BF003C0140014B186083
:100B3000704700BFDC01002008B5044B1B689847D4
:100B4000034A536943F00103536108BDDC010020EF
:100B5000003C014008B5044B5B689847034A536961
:100B600043F00203536108BDDC010020003C01405A
:100B7000034608B90D2909D0012B0CD010B4012B64
:100B80001ED07BB1022B29D010BC70470E29F3D1A7
:100B90000F29F1D170470229F0D10329EED10429A0
:100BA000ECD1F7E7144B1868490003248C4020EA85
:100BB00004001860186802FA01F101431960E3E7C4
:100BC0000E4B1868490003248C4020EA040018608A
:100BD000186802FA01F101431960D5E7084B18685B
:100BE000490003248C4020EA04001860186802FAC7
:100BF00001F101431960C7E7000002400004024010
:100C00000008024030B4044608B90D2908D0012C70
:100C10000BD0012C28D07CB1022C3DD030BC7047C9
:100C20000E29F4D10F29F2D1F8E70229F1D10329D5
:100C3000EFD10429EDD1F1E72348446801258D4027
:100C400024EA0504446044688A4022434260826882
:100C50004C000321A14022EA01028260826803FA6B
:100C600004F111438160D9E71848446801258D409B
:100C700024EA0504446044688A4022434260846850
:100C80004A000321914024EA01018160846803FA4B
:100C900002F121438160C1E70D48446801258D4080
:100CA00024EA0504446044688A4022434260826822
:100CB000490003248C4022EA04028260826803FA1D
:100CC00001F111438160A9E70000024000040240E5
:100CD00000080240034608B90D2909D0012B0CD0A9
:100CE00010B4012B1DD07BB1022B27D010BC704754
:100CF0000E29F3D10F29F1D170470229F0D1032930
:100D0000EED10429ECD1F7E7134B586901248C404C
:100D100020EA04005861586902FA01F1014359615F
:100D2000E4E70E4B586901248C4020EA0400586126
:100D3000586902FA01F101435961D7E7084B586934
:100D400001248C4020EA04005861586902FA01F13C
:100D500001435961CAE700BF00000240000402409D
:100D600000080240072911D810B1012807D07047A8
:100D70001148036A89008A401A43026270470E488C
:100D8000036A89008A401A430262704710B1012841
:100D900009D070470848436A01F0070189008A407A
:100DA0001A43426270470448436A01F00701890010
:100DB0008A401A43426270470000024010B444095E
:100DC000064951F8243000F01F00012202FA00F019
:100DD000184341F8240010BC704700BF00E100E058
:100DE0001E4B1B78033B042B36D8DFE803F0030CC3
:100DF00017222D000A01D2B200F1604000F56140D7
:100E000080F800237047120142EA4112D2B200F189
:100E1000604000F5614080F800237047120142EA0B
:100E20008112D2B200F1604000F5614080F80023E9
:100E30007047120142EAC112D2B200F1604000F5DF
:100E4000614080F8002370471201D2B200F1604087
:100E500000F5614080F80023704700BF1C020020AD
:100E6000054B1870054B064A1A60000240F0BF603F
:100E700040F40030186070471C0200200CED00E0C8
:100E80000000FA050B4B1A6822F480221A601A68D7
:100E900042F480321A60074B1B6813F4003FFAD00B
:100EA000044B9A6822F003029A609A6842F00102A9
:100EB0009A60704700380240032822D8DFE800F02B
:100EC000020A121A0F48036B012202FA01F11943B8
:100ED000016370470B48436B012202FA01F1194389
:100EE000416370470748036C012202FA01F119437C
:100EF000016470470348436C012202FA01F119436F
:100F00004164704700380240024A136823F004032A
:100F10001360704710E000E0044B00229A605860B4
:100F20001A6842F001021A60704700BF10E000E04A
:100F300010B1012806D07047054A136843F0020338
:100F400013607047024A136823F00203136070476E
:100F500010E000E0044B58689B68C01A034BA3FBE9
:100F600000304008704700BF10E000E0ABAAAAAA1A
:100F700008B5064A136823F001031360044B196097
:100F8000FFF7CAFF034B01221A7008BD10E000E012
:100F9000200200201D02002008B5064B1B6823B16B
:100FA0009847054B1B78012B00D008BD014B002250
:100FB0001A60FAE7200200201D020020174B1A6871
:100FC00022F07F021A601A6822F47F6222F00F0278
:100FD0001A601A6822F0FF021A601A6842F00402CE
:100FE0001A601A6842F002021A601A6842F001029E
:100FF0001A601A6822F038021A601A6842F0080271
:101000001A601A6842F400721A601A6842F4807218
:101010001A601A6842F040021A60704700300140BE
:10102000074B9B6813F0020FFAD0054BD860044BB6
:101030009B6813F0010FFAD0014BD868C0B270471B
:101040000030014038B505460F2419E045FA04F296
:1010500002F0010208210020FFF73CFE01220C21D2
:101060000020FFF737FE022000F062F900220C2179
:101070001046FFF72FFE022000F05AF9013C24B27F
:10108000002CE3DA01220B210020FFF723FE0220CF
:1010900000F04EF900220B211046FFF71BFE022044
:1010A00000F046F938BD08B54FF47E40FFF7CAFF9F
:1010B0004FF47D40FFF7C6FF4FF64630FFF7C2FF03
:1010C0004FF24370FFF7BEFF4EF67F70FFF7BAFF97
:1010D0004DF64070FFF7B6FF4BF64070FFF7B2FFDA
:1010E0004FF43F40FFF7AEFF4FF4967000F020F949
:1010F00008BD08B54FF47E40FFF7A4FF4FF67950C6
:10110000FFF7A0FF4FF64930FFF79CFF4FF2497001
:10111000FFF798FF4EF64970FFF794FF4DF64F70BA
:10112000FFF790FF4FF43F40FFF78CFF4FF43F4035
:10113000FFF788FF4FF4967000F0FAF808BD08B585
:101140004FF47E40FFF77EFF4FF64950FFF77AFFDE
:101150004FF64930FFF776FF4FF24970FFF772FF05
:101160004EF64970FFF76EFF4DF67F70FFF76AFF8E
:101170004FF43F40FFF766FF4FF43F40FFF762FF39
:101180004FF4967000F0D4F808BD08B54FF47E40D7
:10119000FFF758FF4FF47D40FFF754FF4FF61E3026
:1011A000FFF750FF4FF21070FFF74CFF4EF6107034
:1011B000FFF748FF4DF6FE70FFF744FF4FF43F4046
:1011C000FFF740FF4FF43F40FFF73CFF4FF49670AE
:1011D00000F0AEF808BD000008B501220221002091
:1011E000FFF778FDC82000F0A3F800220221104686
:1011F000FFF770FDC82000F09BF8012202210020BB
:10120000FFF768FDC82000F093F800220221104685
:10121000FFF760FDC82000F08BF8012202210020BA
:10122000FFF758FD014800F083F808BD80A90300CE
:1012300010B50446012211460020FFF74BFD204661
:10124000FFF7EEFE10BD10B5044600220121104646
:10125000FFF740FD2046FFF7E3FE10BD08B5FFF79E
:10126000BBFF1120FFF7EFFF44F6206000F060F8AD
:101270003A20FFF7E8FF0520FFF7DAFF2920FFF704
:10128000E2FF08BD38B505462A20FFF7DCFF002045
:10129000FFF7CEFF0020FFF7CBFF0020FFF7C8FFCE
:1012A0007F20FFF7C5FF2B20FFF7CDFF0020FFF7C2
:1012B000BFFF0020FFF7BCFF0020FFF7B9FF9F2012
:1012C000FFF7B6FF2C20FFF7BEFF00240EE035F835
:1012D00014006FEA1020C0B2FFF7AAFF35F814001F
:1012E000C043C0B2FFF7A4FF0134A4B2B4F5A04FCD
:1012F000EDD338BD4FF080431A6822F070021A60B7
:101300001A6842F010021A601A6842F080021A60ED
:101310001A6842F004021A601A6822F002021A6087
:10132000DA6822F00102DA6007229A627047000050
:1013300010B4214BA3FB0023DB0BC3EB0344041BC2
:1013400019E04FF080434FF6FF72DA625A6942F0BB
:1013500001025A611A6842F001021A604FF080439C
:101360001B6913F0010FF9D04FF08042136923F08D
:10137000010313610B46591E002BE2D14FF080434D
:10138000DC625A6942F001025A611A6842F00102B5
:101390001A604FF080431B6913F0010FF9D04FF032
:1013A00080431A6922F001021A611A6822F00102D0
:1013B0001A6010BC704700BF018000800D4B1A6896
:1013C00022F070021A601A6842F010021A601A685D
:1013D00042F080021A601A6842F004021A601A6829
:1013E00022F002021A60DA6822F00102DA600722B3
:1013F0009A6270470004004008B5314B1B7833B146
:10140000304B1A68304B1A602D4B00221A702E4B4D
:101410001B68012B11D92C4A1368013B13604FF054
:1014200080431A6922F001021A614FF6FF72DA62F4
:101430005A6942F001025A6108BD234B1B68012B17
:1014400026D0224B1B784BB94FF08043DA6822F04C
:101450000102DA601A6822F001021A601C4B1B6854
:1014600098474FF08042136923F001031361154B35
:101470001B68FBB113464FF6FF72DA624FF08042F1
:10148000536943F0010353610D4B01221A70D3E7F6
:101490000D4A1368013B13604FF080431A6922F034
:1014A00001021A610B4A1268DA625A6942F00102BB
:1014B0005A61C1E7074B1A684FF08043DA62DDE7F3
:1014C000100000202C020020240200204C020020EA
:1014D000480200202802002008B52E4B1B7833B1AB
:1014E0002D4B1A682D4B1A602A4B00221A702B4B79
:1014F0001B68012B10D9294A1368013B1360284B44
:101500001A6922F001021A614FF6FF72DA625A6913
:1015100042F001025A6108BD204B1B68012B23D009
:10152000204B1B7843B91E4BDA6822F00102DA60C7
:101530001A6822F001021A601B4B1B689847184A70
:10154000136923F001031361134B1B68EBB11346BE
:101550004FF6FF72DA62124A536943F00103536196
:101560000C4B01221A70D6E70C4A1368013B13603A
:101570000B4B1A6922F001021A610C4A1268DA62F6
:101580005A6942F001025A61C5E7084B1A68044BD8
:10159000DA62E0E71100002038020020300200206B
:1015A00000040040540200205002002034020020B9
:1015B00008B52E4B1B7833B12D4B1A682D4B1A6092
:1015C0002A4B00221A702B4B1B68012B10D9294A79
:1015D0001368013B1360284B1A6922F001021A615B
:1015E0004FF6FF72DA625A6942F001025A6108BD91
:1015F000204B1B68012B23D0204B1B7843B91E4B7B
:10160000DA6822F00102DA601A6822F001021A6038
:101610001B4B1B689847184A136923F00103136199
:10162000134B1B68EBB113464FF6FF72DA62124A96
:10163000536943F0010353610C4B01221A70D6E742
:101640000C4A1368013B13600B4B1A6922F001022C
:101650001A610C4A1268DA625A6942F001025A6150
:10166000C5E7084B1A68044BDA62E0E71200002075
:10167000440200203C020020000800405C020020E0
:10168000580200204002002010B5FFF7FBFB0021AC
:101690000846FFF711FC01210020FFF70DFC0C218B
:1016A0000320FFF709FC00210220FFF705FC0121C0
:1016B0000220FFF701FC002211461046FFF758FAFE
:1016C00000231A4619461846FFF79CFAFFF776F9E9
:1016D00000210846FFF7CCF98448FFF727FA0021DC
:1016E0000846FFF7DFF901210020FFF7F3F9032097
:1016F000FFF7B6FB002211460620FFF771FB06201C
:10170000FFF75CFBFFF700FCFFF7F4FDFFF756FE69
:10171000012211460020FFF72BFA00231A4601216F
:101720001846FFF76FFA012202210020FFF720FA86
:1017300000231A4602211846FFF764FA0222042108
:101740000020FFF715FA022205210020FFF710FA0A
:10175000022206210020FFF70BFA022207210020B7
:10176000FFF706FA052204210020FFF7FBFA052205
:1017700011460020FFF7F6FA052206210020FFF7A8
:10178000F1FA052207210020FFF7ECFAFFF716FC1B
:10179000012208210020FFF7EBF900231A46082157
:1017A0001846FFF72FFA01220B210020FFF7E0F97E
:1017B00000231A460B211846FFF724FA01220C21B8
:1017C0000020FFF7D5F900231A460C211846FFF731
:1017D00019FA0020FFF7ACFB13E0FFF73FFD0024F0
:1017E00006E0FFF760FC4248FFF74CFD0134E4B22D
:1017F000132CF6D9FEF794FF4AF670113D48FEF718
:10180000E9FF3D4B1B78013B082BFAD801A252F8A7
:1018100023F000BFDB170008391800086318000820
:101820007F180008031800080318000803180008B0
:1018300099180008C3180008FFF710FD002406E0FF
:10184000FFF757FC2D48FFF71DFD0134E4B2092CCA
:10185000F6D9FEF765FF49F649312948FEF7BAFF88
:10186000CFE7FFF7FBFC002406E0FFF768FC254804
:10187000FFF708FD0134E4B2092CF6D9C1E7FFF700
:10188000EDFC002405E0FFF780FC1F48FFF7FAFCA1
:101890000134092CF7DDB4E7012203210020FFF712
:1018A00019FA01220C211046FFF714FA01220D212A
:1018B0001046FFF70FFA01220E211046FFF70AFA31
:1018C0009FE7002203211046FFF704FA00220C21B3
:1018D0000120FFF7FFF900220D210120FFF7FAF99F
:1018E00000220E210120FFF7F5F98AE76D090008B3
:1018F00038470308C89D0208D80100209CBE000894
:1019000050230008C8FD0108C85D0108014B186894
:10191000704700BF1400002030B5141E05469BB070
:10192000184605DA8B232B604FF0FF301BB030BD1B
:101930004FF40273ADF80C3014BF04F1FF332346AB
:10194000029305934FF6FF7300910491ADF80E30AA
:1019500002461E9B6946284600F072F8431CBCBF35
:101960008B232B60002CE1D0009B00221A70DDE756
:1019700007B5009313460A46014603480068FFF77F
:10198000CBFF03B05DF804FB140000202DE9F04705
:101990008E689E4282460C469046994637D88A8980
:1019A00012F4906F31D0256809696F1A65690223B6
:1019B00005EB450595FBF3F509F101033B449D4219
:1019C00038BF1D46530530D5294600F07BFB06463F
:1019D00050B90C23CAF80030A38943F04003A38117
:1019E0004FF0FF30BDE8F0873A46216900F0F8FA81
:1019F000A38923F4906343F08003A381266165618A
:101A00003E44ED1B2660A5604E464E4500D94E462D
:101A100032464146206800F0EEFAA3689B1BA360A3
:101A200023681E4426600020DCE72A4600F0A4FB61
:101A300006460028E2D12169504600F0F5FAC8E7D1
:101A40002DE9F04F9DB0804603938B891D060C460F
:101A500016460FD50B696BB9402100F033FB2060AF
:101A6000206128B90C23C8F800304FF0FF30C7E0E0
:101A7000402363610023099320238DF8293030230C
:101A80008DF82A304FF0010B37463D4615F8013BE3
:101A90000BB1252B3ED1B7EB060A0BD0534632468D
:101AA00021464046FFF772FF013000F0A480099BF9
:101AB000534409933B78002B00F09D8000234FF0A6
:101AC000FF32CDE90523049307938DF853301A9321
:101AD0002F46052217F8011B4F4800F031FA049BEE
:101AE000D0B9D90644BF20228DF853201A0744BF2D
:101AF0002B228DF853202A782A2A15D0079A2F46B0
:101B000000200A25394611F8013B303B092B4DD9FD
:101B1000B8B10FE02F46B8E73F4A801A0BFA00F041
:101B2000184304903D46D3E7039A111D12680391B0
:101B3000002A01DB079204E0524243F002030792BD
:101B400004933B782E2B0CD17B782A2B33D1039B2B
:101B50001A1D1B680392002BB8BF4FF0FF330237EA
:101B600005932E4D39780322284600F0E9F938B163
:101B70004023401B03FA00F0049B03430137049306
:101B8000397827488DF8281006227E1C00F0D8F9F5
:101B9000002838D0234B13BB039B073323F00703E4
:101BA00008330393099B4B4409936DE705FB02320D
:101BB00001200F46A6E700230137059319460A25A1
:101BC000384610F8012B303A092A03D9002BC8D027
:101BD0000591C6E705FB012101230746F0E703ABAA
:101BE00000932246104B04A94046AFF30080B0F1A9
:101BF000FF3F8146D6D1A3895B063FF536AF0998F2
:101C00001DB0BDE8F08F03AB00932246064B04A93C
:101C1000404600F081F8EAE738E703083EE70308AA
:101C200042E70308000000008D1900082DE9F04785
:101C300091461F468A680B69DDF820809342B8BF41
:101C40001346C9F8003091F8432006460C4612B1FD
:101C50000133C9F800302368990642BFD9F8003033
:101C60000233C9F80030256815F0060507D104F1E4
:101C7000190AE368D9F800209B1AAB4228DC94F8D3
:101C800043302268003318BF012392062DD404F19B
:101C9000430239463046C047013020D02368E5680A
:101CA000D9F8002003F00603042B08BFAD1AA3687F
:101CB00022690CBF25EAE57500259342C4BF9B1A33
:101CC000ED184FF000091A344D451AD1002008E0F4
:101CD0000123524639463046C047013003D14FF008
:101CE000FF30BDE8F0870135C3E7E1185A1C30200A
:101CF00081F84300224494F8451082F843100233DF
:101D0000C5E70123224639463046C0470130E6D0B8
:101D100009F10109D8E700002DE9F04301F1430C76
:101D20000C46097E85B06E291746064698460C9AE1
:101D300000F0B38022D8632936D00AD8002900F0F9
:101D4000B980582900F0838004F1420584F84210DC
:101D500032E0642901D06929F6D1206813680506AC
:101D600003F104012AD51B681160002B03DA2D2230
:101D70005B4284F843206F480A2239E0732900F05F
:101D80009D8008D86F2920D07029DDD1236843F0C9
:101D90002003236003E0752917D07829D4D1782354
:101DA00084F84530644855E01368191D1B681160BC
:101DB00004F1420584F8423001238CE01B68116075
:101DC00010F0400F18BF1BB2CFE713682568181D2D
:101DD0001060280601D51B6802E06806FBD51B8849
:101DE00054486F2914BF0A220822002184F84310A6
:101DF0006568A560002DC0F29580216821F004017E
:101E00002160002B3DD1002D40F08E806546082AD0
:101E10000BD12368DB0708D5236962689A42DEBFCD
:101E2000302305F8013C05F1FF35ACEB05032361D8
:101E3000CDF800803B4603AA21463046FFF7F6FE68
:101E400001304DD14FF0FF3005B0BDE8F083394887
:101E500084F84510136821681D1D1B6815600A066B
:101E60000BD5CA0744BF41F0200121601BB922688D
:101E700022F0200222601022B7E74D0648BF9BB235
:101E8000EFE76546B3FBF2F102FB1133C35C05F8E3
:101E9000013D0B460029F5D1B9E713682568616952
:101EA000181D106028061B6801D5196002E06A063B
:101EB000FBD51980002323616546B9E71368191D16
:101EC00011601D6862680021284600F039F808B1E9
:101ED000401B606063682361002384F84330A7E7F8
:101EE00023692A4639463046C0470130AAD02368C4
:101EF0009B0713D4E068039B9842B8BF1846A3E73A
:101F000001234A4639463046C04701309AD0013550
:101F1000E368039A9B1AAB42F2DCEBE7002504F17D
:101F20001909F5E7002BACD1037884F8423004F1AD
:101F300042056CE749E703085AE703080000000080
:101F400001F0FF01102A2BDB10F0070F08D010F86A
:101F5000013B013A8B422DD010F0070F42B3F6D16E
:101F6000F0B441EA012141EA014122F007047FF087
:101F700000070023F0E80256083C85EA010586EADE
:101F8000010685FA47F5A3FA87F586FA47F6A5FA1A
:101F900087F68EB9EED1F0BC01F0FF0102F0070226
:101FA00032B110F8013B013A83EA010313B1F8D1D1
:101FB0000020704701387047002D06BF35460338B2
:101FC000073815F0010F07D1013015F4807F02BFEB
:101FD000013015F4C03F0130F0BC0138704700BF3C
:101FE00010B5431E0A44914200D110BD11F8014BB7
:101FF00003F8014FF7E7884210B501EB020307D859
:10200000421E99420AD011F8014B02F8014FF8E73D
:102010008342F5D98118D21AD34200D110BD13F8EA
:10202000014D01F8014DF7E738B50546002945D0C7
:1020300051F8043C0C1F002BB8BFE41800F0D2F894
:102040001F4A1368104633B9636014602846BDE820
:10205000384000F0C8B8A3420CD9216862189342F6
:1020600004BF1A685B68636004BF52182260046092
:10207000ECE713465A680AB1A242FAD9196858180F
:10208000A0420BD120680144581882421960DDD16A
:10209000106852685A6001441960D7E702D90C23CE
:1020A0002B60D3E7206821188A4204BF1168526868
:1020B000626004BF091821605C60C7E738BD00BFDB
:1020C0006002002070B5CD1C25F0030508350C2DED
:1020D00038BF0C25002D064601DBA94203D90C238D
:1020E0003360002070BD00F07DF8214A146821465D
:1020F00091B9204C23681BB9304600F063F820608A
:102100002946304600F05EF8431C24D10C2333608E
:10211000304600F068F8E4E70B685B1B18D40B2B23
:102120000FD90B60CD50CC18304600F05CF804F1AC
:102130000B00231D20F00700C31AD3D05A42E250EF
:10214000D0E78C424B6816BF636013600C46EBE728
:102150000C464968CCE7C41C24F00304A04205D017
:10216000211A304600F02EF80130CFD02560DBE791
:102170006002002064020020F8B5074614460E46AF
:1021800021B91146BDE8F840FFF79CBF22B9FFF71F
:102190004BFF25462846F8BD00F026F8A0420FD296
:1021A00021463846FFF78EFF05460028F2D031461B
:1021B0002246FFF715FF31463846FFF735FFE9E7BE
:1021C0003546E7E738B5064C002305460846236048
:1021D000FEF728F9431C02D1236803B12B6038BDF8
:1021E000680200207047704751F8043C181F002B0C
:1021F000BCBF0B58C0187047537461636B20667284
:10220000616D653A0A000000205230203D202025F3
:102210003038580A00000000205231203D2020258F
:102220003038580A00000000205232203D2020257E
:102230003038580A00000000205233203D2020256D
:102240003038580A0000000020523132203D20254D
:102250003038580A00000000204C52203D20202534
:102260003038580A00000000205043203D2020252F
:102270003038580A0000000020505352203D2025DD
:102280003038580A000000004653522F4641523A57
:102290000A0000002043465352203D2020253038BC
:1022A000580A00002048465352203D20202530384F
:1022B000580A00002044465352203D202025303843
:1022C000580A00002041465352203D202025303836
:1022D000580A0000204D4D464152203D20253038FF
:1022E000580A00002042464152203D202025303827
:1022F000580A00004D6973630A000000204C522FF9
:102300004558435F52455455524E3D20253038586C
:102310000A0000005B486172644661756C745D0A76
:10232000000000005B4275734661756C745D0A00C5
:102330005B55736167654661756C745D0A000000EA
:102340000000000000000000010203040607080965
:10235000808184858684828482828285888788873A
:1023600085847F7B7A7877767A7C7B7D8084827D9A
:102370007776797775777D81838584848482807E82
:102380008283828384858481828483848384817F21
:102390007E8183827D797D7D7B787879797C7D7B78
:1023A00080838481838783807F7D7C7A797B7B7D3A
:1023B0007E80818180818484847F7F82817F7F820F
:1023C000838384828181807E7E8284838381807EF8
:1023D0007A78767475777D7F8081858583807D7E30
:1023E0007E7E7D7F82818183838382817E808485DE
:1023F000848180807E7C7F7D7C7C7F8080808185E5
:1024000084858180807F7B787B7C7C7E83868787C8
:10241000858083837F7D7B7A7A797B7B78787A7CF1
:102420007B7D7E7F81838180848382818488868591
:102430008683838383808187858484807D7A79788D
:10244000757375797D80807F81827E7A7D7F7B7ACE
:102450007B7D80818282828584817F838482818169
:102460008081818183807E7E808080808183848260
:102470008082817D7B78797A7C7C7D8082827F7F7F
:1024800083817E7C7B7B7B79797B7B7D808284856D
:1024900085858686848486848484848583817E7D04
:1024A0007D7D7E7D7F8381807F7D7B78747576776F
:1024B0007A7E80828384868584828383807F7D7E0A
:1024C00081817F7D7F807F7E7C7E7F7E7F8080821A
:1024D000817E7E7E7E7E7E808283858684807E80F5
:1024E0007D7C7B797C81838181848483817E7F7FF5
:1024F0007F7D7A7B7C777578797A7C7E7F80828617
:1025000085838283848384817F8183817F818587A2
:102510008785858584827F7D7C7976787A7B7E7FCE
:102520007F808082827F7D7A7C7C7A7A7B7D7F82CD
:1025300082818283817F7D80838486888A8B89845F
:102540008281807F7D7E80818484827E7D807B7895
:1025500077777A7D7E7C7D81817E7B7D807F7D7DAE
:102560007C7D81807F828486848282808285817E58
:102570007F838480807F7B7B7C7B7B7D818282826A
:10258000848483827F7C7C7D7A797A7A7B7C7F816C
:1025900081868883807F817F7A797A7C7F7E7B7A4F
:1025A0007D7F7D7B7D8285868989898987848281FB
:1025B000817F8083818083827E7D7E807E7D7C7C26
:1025C0007D81817D7C7D7E7D7B7B7E7C7B7D7C7D3A
:1025D000818081838482808484817F8281808281E2
:1025E000818282817E808484858584838181807ECE
:1025F0007C7D7C7A7D7E7B7B7B7A797B7D7C7D7F1D
:102600007E7C7D7E7D7C7E828282848280817F7CD6
:102610007C808384858787858584807E7E7D7B7CA6
:1026200080807D7F82807E7D7A79797A79798083D6
:10263000848485868685837F7D7D7977777C7F7EA0
:102640007C7D7E7F807E7E7E7F838483827F7F7F92
:102650007E7D7F83858687898987888682817F7B47
:102660007A767476777A7C7C828582817B797F7DAD
:1026700078797D8285828083827F7B787D82828467
:10268000858A918D85827F7D7C78777A7D7F7E803B
:10269000838485827D7A7D7C7A76747C8684868C40
:1026A0008B857B7976747D847E777B858A84838233
:1026B00082807B767576797D7B7F868988837D7D38
:1026C0007F7E8187898A85858E8F8F8A7F76746CDD
:1026D000676C71777E868B8B8B877C736E6C696C75
:1026E000747D8286878B9391908981807E7F7D85A2
:1026F0009291897D7D8D93847D828481746B6D6DD3
:102700006B696A7A8583808283857E7A8180818203
:102710007F8691928E8E8D887C72787471747981A7
:1027200085868080868070676F7E8480859297988A
:102730008B7C7876726F76838C8C898788837A70AD
:102740006D6F7070747F8D8C86837880877C6E65EA
:1027500072878C91A0A3A0957E76746E6665728454
:102760008B8F9699928575676262656A75808D8E8A
:102770008D92827C82786B6C778B97959CA5A59BBC
:10278000806A635A515563778890989B968D786BD1
:10279000605A5D6170879496A19A8C96958376694C
:1027A0007A949B9EA4A39E8A6A5E5A55525768806B
:1027B0008C969A9C92826B60606061677C86949C28
:1027C0009CA1A58F7B737E9196959DA29B8E796A25
:1027D000615D57586277878B90938C7E70635E5EE5
:1027E0005E667686959C948B90928371738798969B
:1027F00092979E9580675D605C585F718592929418
:10280000968C7C6D6162666F7A8C9E9B9199A79A7B
:102810007C6C758788858F9EA5917A67656358550E
:10282000647B888D949A98866D5C5A5C606E7D900E
:102830009A9799A7A58D76718291898C98A0967B9D
:1028400065646965606275898F9098978B71625C29
:102850005C616D7886999993999E8C706472858776
:102860008797A39D896F61666252556A85949BA77D
:10287000AB9B8570636161626D82969B939BA6960C
:1028800072626B7E7E7D8E9D9B88736D71635256E6
:10289000687D898E9CA6998475716D65616D839341
:1028A0009B979FAC9B7B70798484808D9B92817475
:1028B000707466595B6D7E8286979D8D8077726994
:1028C000616573818E90909CA0897575828B8387DA
:1028D000989785766D6F6D605D6B7D8587929D9510
:1028E000877D796F67656B79878F90949A937D73F5
:1028F0007C8784848F968E81767270655B61717B34
:10290000838B95968A817C716762616F7E87919ACD
:10291000A39F8A80848A88858D9793877C79786D38
:10292000606471797F8590938A827F766C63616A37
:10293000747D858C9895847F82898A888B95908513
:102940007975796F666C7880858C9596908A877D8D
:10295000756964696E79818B969185848687868591
:102960008589847C7578776A6567707578828D90C3
:102970008D8C8B877F706C6B6D757B8993918C8F41
:1029800094979491908D847A70717269656971756C
:102990007A81868586878584807B7A787879798044
:1029A000878582868B909193918E887F78757572DA
:1029B00070727574777E7D7A797A7F828283828263
:1029C00086858186888581808080838788888887BE
:1029D0008787847F7975746E6B6E706F6D6D72779B
:1029E0007B7F7E7D83898B8E91918F928E89898C5E
:1029F0008B8A8885858482807B7A756D6D6C6C6A24
:102A00006A6E76797D8386858685868486878689C3
:102A100088898B8F8E8C8886837E797776787370A1
:102A20007275777474767C7E808284878A8A8A8BBA
:102A30008D8C8B89828184868785838486837E774B
:102A400074736C6663676D7071767C83858585862B
:102A5000888686898D8F93938E8D8D8A8A87827FD3
:102A60007F807E7A7876726C686767686A6F737A3F
:102A70007E85888B8C8A888989888D8E8C8C8C8ABF
:102A80008B8988817E7D797573726D6D6D707170C3
:102A900074797C7E7F8486898A88898B8C8E9291DA
:102AA0008F8E8C8C8987857F7E7D797573716E683A
:102AB000666A6C6E6E70757B7F8184878987878973
:102AC000898D939496949492908F8B8482807B7757
:102AD00074726F686667676A6B6C70747A7D8287E0
:102AE0008686898A87878C90908E8E8D8E918E892E
:102AF00087847E7874726C68676A6B6E727476799C
:102B00007E7E838988878B8B8D8C8D8E8E8F8F8B2D
:102B10008B8D8A878483817B7977716B666363642D
:102B200068686B727A7E838A8B8B898C8C8D8F9090
:102B3000929493929496938D8988857D7A78736C1C
:102B4000676563646665666A6E737C8287898B904D
:102B50008E8F8E8E8B8987888A90939290918E87A4
:102B6000817B746B666462636665686F72767D8371
:102B7000878B8C8C8B8F91908E8D8B8987888B8B9C
:102B80008A8B8C8A8987837B72686362605A5A5FFA
:102B9000656C727A7F85898A8A8F949496959290D3
:102BA0008E8B8986898B8D8D8F93928B837C726BB4
:102BB000655F5C5A595E656D71757D848587898D09
:102BC00090918F8F8F908E898787858485888A8A58
:102BD0008A8987837E78716A65646566686C7378B4
:102BE0007A7F83878B8E8F8F90908E8A8786848062
:102BF0007F83848786828283837F7C7976747371F6
:102C00006E6C6A67696B71777F888E9096989691E3
:102C10008F8B888380808183838282848486838271
:102C20007F7C7C7C77767471706D6B696C72767862
:102C30007F878E8F91918D89867F7D7E7E7F80823A
:102C400083858587848688898A8A8785807D777150
:102C50006F6E6B6A70767A7A8084878787858586BF
:102C6000837F7D7E7B7A7B7E7E7F808588898A8B51
:102C70008D8D8A8585837E767171716E7074787D95
:102C80007E7E81868585828283838381807F7F7E2D
:102C90007C7D8184878A8E8F9192918A837E7773DF
:102CA0006F6A676768696C7075797E8384868686CB
:102CB000878886878988898685858686888D929388
:102CC0009494918B837B746D676767686865696DA1
:102CD0006D6E71757C8184868B8E8E8C8B898786D8
:102CE000878B8B8B8E9193959593928D847D777244
:102CF0006E6A6662646769696A6E71757880858BD1
:102D00008F9190908F8D8C8A888787888B8A8A8C08
:102D10008C8A898885807A726D6965636164676B66
:102D200072777A7E838789898A8D92959695949118
:102D30008D88847F7E7E808385888887837F797372
:102D40006D696564656466696E7275777F85898D66
:102D50009296999B98989792898482807F7E7E80B4
:102D60008386898787837E77716D6B69676A6B6BF2
:102D70006D7072767A80899193939493908A86820B
:102D8000828482808082828281818588898C8B87FF
:102D900084817A74716E6E6B6C70767B7E7E8186B8
:102DA00087878785858784827E7F7E7D7D7C7C7C0E
:102DB0007F8082868C90908F8E89857D76727172ED
:102DC0007174777C7E7C78797B7D7E7D7F83848542
:102DD00085827F7B7A7A797A8086888B8E919393AD
:102DE000908985847F7B79767575716C6C6C6D6C60
:102DF0006C71777B7D8286888987848281808085DB
:102E0000888B8F9599999895908E8A85817F7E7B06
:102E10007874716C6560606060646D747A7D7D7FCC
:102E2000828483838586898B8D93989797989797CB
:102E30009694928F8987858178716C66625D5A5C01
:102E40006366676B737C7E7C7B7E8386888D9296BF
:102E50009593918F8D8B8B8A8C909395958D837E96
:102E60007A726A656668656464696D6E6E71797F91
:102E700083888B8D9091908E8D8986868888878DAA
:102E800092938F8C8D8C898177726F6C6765666683
:102E90006664656A70757B81888E9090928F898454
:102EA0008587888B8A8F93908C8A88888783828491
:102EB00087837C77736E6A6766686A6D7174777AE8
:102EC0007D81817F808286898A888A8A8A898888AA
:102ED00089888788888A8A8B8A8D8C87837F787196
:102EE00070706D6C6D6F71727070797D7E7F818591
:102EF00086858484837E7C7D80868988898E8D8A80
:102F00008A8B8E8C8A8A8986817C76706A66686CE8
:102F10006F7174787B7F8081827F7E7E80838585E0
:102F20008383858789888A8B8A8B8D8D8C8E8C850F
:102F3000817D78736E6A6767696B6F74797A7B7B62
:102F40007F818283848A8E8E8E8D8C8B8886868804
:102F500087898A89898A8B88857F797876716D6B74
:102F6000696A6866686D7275787C808486878A8EE7
:102F70009191918F8E8C8987858386898A8B8B8AA4
:102F8000898A86807B7876726D6B6B6A6967686DFB
:102F900072757A8287898B8B8B8D8C8987858482E9
:102FA000807E7F81828488898B8D8C8B8B87807CCF
:102FB0007774716F6D6D6E6E72767A7D80838687A1
:102FC00085828081848481818384817F7D7D8081ED
:102FD0008284898A8B8B8883807B797574777878F3
:102FE000787B7B7A7877767A7E81868A8A868684F1
:102FF00085827A7B7D7E7F8284898B88878B8C8794
:10300000848584817F7B7B78736F6C6C6B6E71754C
:103010007A818889898988827E7E7D7A7E82858987
:103020008C8D8A89878B8C8C8F8F8A86887E747032
:103030006C6764676E767A7E82848082827D767326
:10304000767A7B787A7D7C7C858B9092939395952C
:1030500091918E8D8980777972686A6C68707876C4
:103060007A7E8688857F847F757374757B80808483
:103070008587878B88878786838486858B8E9395C3
:103080008F837E746C6864636B737781868D8B80AD
:103090007E80797373777B80868989848784808238
:1030A00083898D8B8B908C8A8C87837E736E6E6CFC
:1030B0006B676971797D82898B8D8A8683807E7E3C
:1030C0007A75757B7D7C7B7F868C939091918984CA
:1030D000858483858488867C7673706D61606C736B
:1030E00077808B91908B847F73686A6C71777E890F
:1030F0009391909090918B8082837C7F838790982E
:103100009691847A72696A6967707D7E868B9191E7
:1031100085726B685F5F626E7C858F9A97908B82F9
:1031200082838184857F8B9395999E9C9384746D13
:10313000626062646D7F868C8C87847B6D686A6751
:103140006A717C888D8E9592857F7D7B8286858C49
:103150008C8D968F8A92948C83787471676766657C
:10316000707D80888A8C887B6D6768696F73808CBE
:1031700092989D9A918B837E7F79777F8287898DC4
:10318000989D907E72645C5357636B77858F9B9D8F
:103190008F8176685D5C66798795A4A8A59B8E7BF8
:1031A00072716F747D88908E8A908E8B87847E7802
:1031B000716A69696F7170757C82857F7D847E73A9
:1031C00070747B8488939A99948B81797B767279D9
:1031D000838686858A90909499968A7C6A645E5DDF
:1031E00067748189909693877E7166616368748342
:1031F0009095918D857A68626A737F8E9AA1A29765
:103200008D898C8C8580827E77736C6F767B7B7DDD
:10321000848A82777473706969717B7E82888C8BF3
:10322000857D7B7D8086878A90918D8681858C9136
:1032300096958880746A605B67767E8283878B82CE
:103240007268656B74798290989A938C86807B788B
:1032500081868C9299958C8176787C8486827E7822
:103260006A635C5E666F7D878F9293897E736E72F0
:10327000767B838D969B968F8883807B80828082ED
:10328000848381776F78868E8D877D746B666163AA
:1032900072828B90918D887D756C686F7D88919717
:1032A00098968C82787272757C80828488847C7413
:1032B0006F7B8A9BA397867B766E69676D7B8A930B
:1032C000938D857D756E6B6B6D7680868686858128
:1032D0007C73757A84898687858888827A8090A1B4
:1032E000A89A8672676A6B68748592978E847566F1
:1032F0006466686C737D8A8F959389837D7A7B7B06
:103300007E837F838484827976828EA1ADA28E7340
:1033100064625F626B7484919185766C6F73797B64
:103320007B828B9698948D8783817C75797B797B62
:103330007C83827F78798899A0907D665B5C646BE2
:103340007582909991877B72747C8082858C94962B
:10335000948D817A787675707776757B7E818279A7
:10336000717D8CA1A699856A62666A717A8390974D
:10337000968F7D74747476797B80878D918B827B38
:10338000716E6B6C7471787F888F8A82838C98AB36
:10339000A8987E6C6B6B70767A828B8F8A7F746D47
:1033A0006A6E7978797D83898983796F6B70727E93
:1033B0007E848A8F98918780858FA8B0A48B6E6158
:1033C0005E646B6F747F8B8F8E82726A6D77757798
:1033D000787E8890918A7E72706E767C7F848893E6
:1033E000938A7F7B839AA9A18E725F5E636B7175EE
:1033F000818C919385766D6F797C7F8181878F95A4
:10340000908376706A717D7C82858F8F857A7479DE
:103410008FA29F90746360636C7479838D979D9283
:1034200082736F797C7D7D7F868C908E84787168C5
:103430006E79767C80898B857E7A7E8EA2A2987F3B
:1034400069656672797A838D96978C7C6E666C73EB
:10345000787E81878E948F86746C5F646F738186AB
:1034600091929089858692A29E937E6E6B6C767BFC
:103470007B81878B898274686270787A7D81858888
:103480008A867F6F68636F7880888C979491848533
:10349000899BA8A1947B6D686970717379818B8A0F
:1034A000857B6F69737A79777A81898D8A82787260
:1034B00071767580828992918D808790A0A4968282
:1034C0006B64636F76797B7F8A918A7C6F64666EAA
:1034D0007A7A7F868F96989386786E736F787E85DA
:1034E0008B8C8E8581899798927E6C6566737D7CC6
:1034F0007F7E808382786C676C767F89888B9195DC
:103500009995897B6E6C6B72787D837F84878A8DB9
:103510009AA294846D6A6A707C7C7E7F837F7C78BB
:103520006F686E7A828083878B9192928B7F7271A3
:103530006A73797C827F8180909BA49E927B646376
:1035400064748084898B8D8E827268676D798384C0
:1035500082838C8C8F8882786F6F6F71717F81838B
:10356000838591A3AE9D866F6362697985909394FC
:10357000948A7E6C616169757E888886878D8D8767
:103580007A6F74737A7B7C828380788191A3A89B05
:103590007D5F5A5E6D7C868F95999B8F7A68616698
:1035A0006D767D7E8387848687847B7573767F8244
:1035B0008C87837E7F8B9BABA391755E545C6F760B
:1035C0007F8A96A19C907B665E636C7073787E8523
:1035D0008F8D857F807F7B7D7F8B8D8C827D8A998F
:1035E000AAA18E7059575E6C75828B98A2A19782A2
:1035F00071656064696D6F73818A8C8F8378777B66
:103600007F80898D8C8A8B919AA59F8B6A585D6388
:10361000727B818A939B9788756B676C72737476E3
:103620007D828283847A807E7B7F838A8589848A77
:1036300096A8A89982675D555F727C818D9091896B
:1036400080766C6D757C7E7F7D79787B7B74747CF5
:103650007A87888B8B87848593A3B2AA9B7B675AD2
:103660005B61646C808F979C8A7564687076787BE8
:1036700080878A847A737177747D88899189857F40
:103680008B9BB0B2A18A6E656067676A7585919CF5
:1036900094807468696971767B8488898480737387
:1036A0006E717A7B8A8D87848F98ABACA18E776D93
:1036B0007176727175818B9289776E69696E6F729E
:1036C0007580888D8A817A787A797F81878276730E
:1036D0007F90A9B1A18C757071777273788592947F
:1036E00088766D6A6A6D6E6F788088858582808243
:1036F0007B7A7C81858377737E91A9B0A08C76706C
:1037000074767572798696958A786D6A6866666849
:103710007683898D8A817979757C828B8E857D828D
:1037200094A7A99A8570696B6F696D7788989D9544
:10373000847D78776E676970787C7D828283847AF5
:1037400074778187877D7F92A6B6A78D7363636246
:103750005D62768B979A928882827D716E737D7E90
:103760007B76797B8086817D848D897C717B90AC32
:10377000AC9D86756E645E595F6F828C8A8583828C
:10378000807B7878858C8A878787807C76747B8637
:103790008B85797F8B9EA49B87746C6868636C793A
:1037A000868C887D736E6E686C717F8F989693930C
:1037B0008A88807B7D84867F717489A0A9A3948088
:1037C0006D5F5C555E718694948F8575695E585FF8
:1037D0006F828E979A9A95968C878B8B897C6E7860
:1037E0008A989D91897E70625E5E68717F8B898BFD
:1037F000847A7168666D717A7F878B8C8C8F9190DB
:10380000908F8977778A9BA8A89A8D7964554E56B0
:10381000687C8B949187776C62595F6874828D9015
:103820008D8B8B8684888B847D7E8B9AA4ADA7A09C
:103830008C736258575C677B898E8E877E71655B5F
:1038400060687981858E8F8E8B8885857E75727F85
:103850008E9BA0A6A4957F6E696160677B8B959611
:10386000918676665C5E667078858A8E89868383AB
:10387000847D757B8B929A9CA19C8C796F6867651F
:103880006875828E91908B84756C686A6D727B828C
:10389000888B88868A85796C75848E969CA29E8F8B
:1038A0007B6F66636368727E899093908477726D94
:1038B0006F7177828B8D8B8A86827C7473787D861C
:1038C0008E9292938E83786D6B6D6F72797E828803
:1038D0008986817C797A7D7C797C7C80878A8F91CE
:1038E0008B87868482828487888582807C757271CA
:1038F0006E7173777B7B787874757D848A8D8B8607
:103900008588847B7A7C7F868E959A9794938A8328
:103910007D7672716F6C6D706D7072747576777D77
:10392000807E7F7F81868B8E908C847F838482864D
:103930008C92979B9A968B827A7168645F5E646BB7
:103940006E717476797C7E7F80818688888B8C8B83
:103950008D8F90918F8B8C91928F89847D797471EA
:103960006F6D6D6A6467686B70767D828485858013
:103970008285888988888B8B8F8F8F95969793887F
:103980007F7A7B7B736D6C6D6E6D70767B82847ECF
:103990007C79747375777E8785828083888C929614
:1039A000969591908B85837C7873706F7273757424
:1039B000757A7A7B7979828786878181858280830F
:1039C000818081818588898885827E7D7F7D7E7AE0
:1039D000767674757B7A757679808383858686831F
:1039E000838988828B8B868384817A7A7D7F807DB0
:1039F00074716E6F747B8389898C8C8A8B89877FC5
:103A00007572777C7E7D7F807F828585888C8D92A4
:103A10008F867C746C625C5E6163686C76828F9565
:103A2000989A969193958A807A7A7B81878C8E8EEC
:103A30008A898C8986837D7A7E7A79726A676667DD
:103A40006765686E757E83898D949794989C989528
:103A500090857D76797C7B7B7F80838686857F7C65
:103A6000797A7A756B69686F7273757779798288FC
:103A70008C8988848B949896928C86867E7B797AC2
:103A800078777576787B78706B686D757A7D7E80D7
:103A90008988878582817E7D7E878C908D939EA686
:103AA000A79C8B8075727268646060676D757F8596
:103AB0008A8986868585807E7E7E7E817F7E8082E5
:103AC00083848886848185898A847D7C7A7B7E7ED6
:103AD0007A77737673747D848A898C91938D8479D7
:103AE00072747679787A808380808285847D797C0F
:103AF000807F7B756D6A727B7D746F79838487901C
:103B0000969796979B9B93857A7573787D7D7F8238
:103B10008182817B776D66666A6B6C727674778062
:103B20008B95949594928D8A8985818082868E91D9
:103B3000908A8887837469666569676973787A7E15
:103B4000808792958C847D7E7F7F7C787B7F84814B
:103B5000868D979A969094968A796B605E605E6186
:103B60005C5C666F78838A929A9A98988E83817E3D
:103B70007E8889868785898F92979B9089817775C2
:103B80006F655D5650575E636E797A7B848F979D23
:103B90009E9F9C9691877C74707781878C8D87849B
:103BA0008079747373767473797B79746F72797EAC
:103BB000808B908D92928A8283868785888F94915C
:103BC0008C877E7C7873716D636060606266727EE4
:103BD0008B909798928C8785807A787E8087909753
:103BE0009A9E9EA1A1958E7F6F635B5653555B6233
:103BF000676F768084868686908D8B91948C86887C
:103C00008886828486868A8F89868C8A857C6F6581
:103C10005E5658626B737A8187898B908D88848910
:103C200092948F888585868988868A857D7A757243
:103C30007373707073757876706C676C74757D854E
:103C40008991959491938D8A939DA6A99E8F827058
:103C50006C717376767574736C66605A5F6C758080
:103C600087898F908C888481848582878C909695B3
:103C700092989F9B9588776961585252575C6372FE
:103C80007E84888783858E9495948B8483807E7DC3
:103C90008186888D929A9D968E847D797470685DF8
:103CA000595C6264686C6E757E858E8E8B888689A1
:103CB0008C8C8B898B939D9E9B9F9C928D867B7019
:103CC0006964666A707679736F6F6D6F6F72787AF8
:103CD000777B8384888A8A929AA0A39C908B89821E
:103CE0007F807F7C7772706E6863646972818D906B
:103CF0008A8180817E7D7C828380818786848482A4
:103D000088919C9F968C867A6E6D6762625F606810
:103D10006E717A84878B91929088827F7D7D7A778D
:103D20007D838A92999E9FA09B948B867E726B6105
:103D30005654595F666C727B858B90928D89868B09
:103D40008E887F7E80838A8C8E9295908E8B8480E5
:103D50007F7976746C625A5A5F68717A8383868A37
:103D60008A8B89898B8D8D9094938F8C87817F80AE
:103D7000848688847E7D7E7B746E66686D6F6C66DB
:103D80006060636D7F888B8F939593908B88888D0F
:103D900093999A938C8D91908E898078746F6862D4
:103DA0005C5D5F616A727B8585807A777A7E7F84CD
:103DB0008B8E919191929393928D8A8D8A8685852F
:103DC00083817D7269656364696E73787E8385899A
:103DD0008B88837F7F7D7A797E83898F9596908A81
:103DE0008583818384858A8A87867F736B665F5B20
:103DF0005A5C66707B888C909597908A8A8B8E87A8
:103E0000807A75777D83878E919496928F8F87784D
:103E100070696769676163696E757D80848A8A8B62
:103E20008D8D8E8A827D807F7E7D767375757C8791
:103E30008C939C9B97948D837A6D69727372737265
:103E4000707276797D828385898F94928B827B765E
:103E500076747074787678838C929799978F88852A
:103E60007D746B696D707174777C7E7F838B9091AC
:103E7000928F8B8A877C746D6F75777B818381824B
:103E80008384878A8C8A898B8E8B80787373706E1B
:103E90006D6A6B6D6E727D868C91908E8E8A837D3D
:103EA000797A7D7B7B7C7E8180858B92969B9A92B2
:103EB00090897E716864626265686D767B7C8086BD
:103EC00085858481848D8F8B827B77767777787CEC
:103ED00084898B909598989796948B7D746E6A6977
:103EE00067676A6D717777787B80888C8C8C8E8C15
:103EF00088857F7D7B7977787D858B8D91928F8981
:103F00008886848277706B696A6A696A6C747D815D
:103F1000868C92918E8A8687847F81878E90898312
:103F20007C787A7E7C7A7975777E8A929089837A9A
:103F3000747069635F61676F78818A929595908DDF
:103F40008F8C8786888D8C85827C797A7D7D7D7C3F
:103F5000797F868E928F867C726C6A6867686B72D6
:103F60007B83878A8C8D8D8C8B8B888079787B7B0B
:103F70007B7D7A797B7D7F807D7C80858E96989312
:103F80008D88827A6F6A6A6B6E73797E83898B8C77
:103F90008B888680797573757474787C8285898A3C
:103FA0008985807C7C818A918C87858480797470F6
:103FB0007071757D85888584868381807E7C7A7D1D
:103FC0008081807F7F7F83827C77757A858E9297D0
:103FD00098948F8A847B6E6664615F61697982865A
:103FE0008987828283828381808289888788878883
:103FF00085848284878D8E8D908F88827C76706791
:10400000676A6B6B6A6D757B7D7B7B7B7F84888742
:104010008382888C8788898684817C7E879193912E
:10402000929191918A7F75706D6A696765666B720E
:1040300076797A7E8183888B8B88878888898D8C36
:10404000888985818486848281818487847D777351
:104050007678726E6B6A6C6F72777D8183878B91D5
:1040600096958F8A898D8E8C867F7974787F8486E9
:1040700086868689898279706B6F6E686664666CE5
:1040800071767C8387888A8E9393928C8B8F9390A2
:104090008B86828081858A8A88857F7A7877767315
:1040A000706F71716E6D6E71727376798086888DA6
:1040B0009292918D888686847F7C7E7F818486899A
:1040C0008C908F857F7F838278716C6C6F6C686B4E
:1040D0006F747A82878E918E89858586867F7977BF
:1040E0007C83898C8E8E90938E857C77737478799F
:1040F0007874726F6C6C6C72797C7D81878B8C8E1E
:104100008D8C8E8C857C77777B858A8A8E8D89884D
:1041100085818285817875787B79726B6766666444
:104120006A72767C858D9294969089827E7F7D7E60
:104130008186909696948F8C8C8A85827F79726D19
:104140006D6C6C6A6A6C6C6B6E73787B818B93940C
:10415000938F8A8884828484838381828284888AFC
:104160008B8E908E8C84776B66676A6C6A696C71D3
:10417000787D828C8E8B8B8B8C8C898482848584D9
:104180008382808286898B8F8F8D8981786D66612D
:104190005C5B606870787D80878D89888987878976
:1041A0008D9191908C898A89858383818187888785
:1041B000847C706A6A6D6C69696B6C7279808582C7
:1041C0008082838081868B8F919295948D857E806D
:1041D00082848587888989847B74726C6A6B6C6E33
:1041E000727B7F7D7D8085837D7C7E848786888BC6
:1041F0008B8B8D9091908986847D7674726E696ABE
:104200006A6B7175787F8C93918B87817E7F8082BA
:10421000818080848A8A888B8F8F8C8D8B857D743A
:104220006F6C6B6C6B6A6A6C747C838B908F8B8702
:10423000817F7C7876777B828B8C89888B8D8A8551
:1042400085878787857E7975706C6B6F74757777D6
:104250007982888987888A888887858280807E811C
:10426000858885817E7C7B797978757376777572A0
:104270007274787E858A8B8B8B8B8D8C86858685F8
:10428000858889898A87817F80817F78726F6D7048
:10429000716E6C6E747B8182858989888688887F3F
:1042A0007775787E878A8C91969998948E8A83798F
:1042B000716F6F6E71706D6E73767678797E878CA4
:1042C0008C8A88807A797F827D7D80868F98999686
:1042D000918C857E79746E6866676A6F717273758A
:1042E0007B81858688888C8E8D8B8A877F7B7C8579
:1042F0008D8E8C8A898C8D88807B787675746F6AB8
:1043000069686A6F767A7B7C7D82888B89828081FE
:10431000808082868786888C9398989389827F7D17
:104320007975737272747576777779797A7E7F7B17
:104330007A7C7D7E7C7C7C7F838891989B958A8328
:10434000807E7F7D767475787876777A7F828284B6
:104350008686868583818281797171757A7E818571
:104360008A8E90918F8B827B76706E71717172776D
:104370007E8281808081818487878582817C797A31
:10438000787574767E848A9095979592918E847ACA
:1043900075706B6D7171727278818584868B8D8B6F
:1043A0008988857E797672767D7B797B81888E8C13
:1043B000878887838484807A7573706E73797B7C39
:1043C0007C8185898B8D8F8E8B87807B7A797777BF
:1043D0007A7A7A7D8083888B898988848181807BC1
:1043E000746D6B6A6B7074767A7E83888A8A8A8D24
:1043F0008B878583848481808081827F7E7F848B8C
:104400008E8F8D8987837B74706C696C6C6C73780C
:104410007C81848487888785858584828385808064
:104420007D75767B7C7D82858991979694918B862C
:1044300080786E6665676D74797D7D7F8080808110
:10444000828386878686817C7C79797A797A7C7C7E
:104450007F85898C8F908E8B88837E76716D696D58
:10446000767A7C7D7D7E80838787898D8E8E8A8417
:104470007F7A757072787A7A7C81868A8E8F8E8F39
:1044800091918D867C75706A696A6C7071737678AB
:104490007F8788898D8E8D8A85807D7A7A7D7F80E1
:1044A000818080838688898A8C90908E8A837D77AC
:1044B0006F6A696766686E71777F84828585848399
:1044C000828080807F7D7E80807E7D8185889094C3
:1044D000949795918D88817D7972707171706F6DEF
:1044E0006F73787C7F8384838281808182807D7FEB
:1044F00081807D797B8185898B8986868783808190
:1045000080807E7F8182817B7675767A7F818487C9
:10451000878886827E797576797C80807D7D8180B2
:104520008182838487888684817E7F7F8183807C6B
:104530007775787B7E81828485818081817F7C799B
:1045400077787B7D7D7C7F8384858682828382826F
:10455000868786847F7D808384817D7D7E807E7B4F
:10456000787673727678777777787A7D7D7D7C7EC2
:10457000878D8E8F8F908E8D8E8C8B8985817F829B
:1045800083807C76747677797977737072777879AF
:104590007B7C7F7F7F7E78767B83888E96979794CF
:1045A0008F8A857F7B797A7E8486827A717274772E
:1045B0007B7B7978797B7D7D7C7977787C81838141
:1045C00080848B90929595918C87817A736F7075AA
:1045D000777A7B76726F7174787D7F818485868629
:1045E000868582828184898B8A898A8D8D8A8A8850
:1045F000817B787A7B7974706F6F72767677787852
:104600007D8181817E7D7E82848688868787888A77
:1046100088848283858582858885827F7D7B787585
:1046200072737476797B7A7A7D85898A87827F7EB8
:104630007F82878C8C8B8884817E797675797B7C70
:104640007F817E7C7A77777878787C828588878589
:1046500085878A8A8886817E7F7F7F808282818229
:1046600081817F7A7572727575797D7D7D7D7C7DA6
:104670007F807D7E81838684838485888784828011
:104680008082818080807F7C7D7D8284817B74724A
:1046900077797B7C7A7D8082838685818184878B14
:1046A0008C8A878685817D7A76747576797B7D7D27
:1046B0007B7A7B7E8284827D7F81818284818181FD
:1046C0008183888A8688898B8C8984807E7E7B77AB
:1046D0007371737477797D81817F7B787B7F828032
:1046E0007D7E818382817D7B7B7D8085898A8C8DA7
:1046F0008E8F8D877F7A7A797573737477797B7DE6
:104700007F7F80818080817F7A777B8083848482B1
:104710007E7C7C7D8082848485848384827D7A7D96
:104720007C7978797B7D7F84898B8987827E7D7D8A
:104730007C7A787C818383838180807F7F7F7D7F8B
:104740007F7F7F8387878380807D797979797C7D7E
:104750008083827F7E7E7B7B7B7E7F808587878850
:10476000878582807F7F7F7F81818182838584812D
:1047700081827F7C7C7B79797A7B7C7B7977797C81
:104780007F80817E7B7F828485817D7B7B7D82852E
:10479000878A8A89898686858382817E7D7D7A79EA
:1047A0007A79797B7A7A7A7A7D7E7F828380818238
:1047B0008384817C7B7D80838584828080817E80F0
:1047C000817F7E7D7C7D7E7C7B7C808484817F7B01
:1047D0007B818282868A8A888784827E7C7D7C7BBC
:1047E0007C7C7A7B7B7E848483817E7C79787878FC
:1047F0007575787D7F8081828182878686898C8AA3
:104800008A8A898883807B797876777B7F808183A9
:104810008082817E7B777779787676797F848584CC
:104820008484868A8783828383828180817D7A756E
:104830007475757A7D8182858786868584817C7C86
:104840007D7C7A797A7E8284858685848785817F5E
:104850007E7D7C7C7E7E7D7C7979797877777979AD
:104860007C8082878A89858281807E7B7B7F83872B
:104870008786868483838282828483807E7F7F7E14
:104880007C7774747473757A7C8387898C8C898542
:1048900081807E7B777678797D7F8080818182833D
:1048A00084878889888684827F7C777475787A7F0C
:1048B0008281858785858482807F7D7B7876777A03
:1048C0007C7D7B7B7D7F818585858785827E7D7EE6
:1048D0007F7D7B7A797D7F7E8183848888848381D4
:1048E0007F7E7D7D808281807E7C7A7A78797C7EF5
:1048F0008180818384838484838383827F7C7B7BA8
:104900007A7A797A7E807F808383848382838280AF
:10491000807F7E7F7F7D7C7C7D8182878D8D8A8A72
:10492000857F7D7A787676797B7C7C7C7F828381BB
:1049300082858382807D7D7B7A7979797C7F7E8098
:104940008181828385898A8787817F807D7B787951
:104950007C80828182848685807E7F7E7E7C797960
:104960007A7C7D7E7F7E7F81828484817F7C7D7D59
:104970007B7C78797D7E7F7D808286888585888B2B
:10498000898581807D7B79797D81838483817F8026
:104990007E7A787876797A7C7E7F817E7F82828348
:1049A0008283838483817F8283838482827E7B7AF5
:1049B000797C8083838484807D7D7B7877787E801A
:1049C000818383817F8182818080808286878481C8
:1049D000848380807F81807B78787B7C7A7B7B7806
:1049E0007A808179787F7E7D7F868784868B8C8AAA
:1049F000898480808587827F7E807D7B7E7F7D7AB3
:104A00007979767579797B7D7C7B7E807B797D7EFB
:104A10008081818283858887878984807F83827E65
:104A20007D7D7F7E7E838381807D7C7C7D807D7AA1
:104A30007C7C7B7D7D7A7A7B7D8186878787878971
:104A40008684837F7E7C7B7A7677797D7F8085867E
:104A500084817E7D7B7B7E7E7E8284838382818156
:104A6000808083868687868484807E7E7877777848
:104A70007B7E818184838083827F7C7A7C7C7A7E4A
:104A80007D7B7E7F7E7E7F7F7D7C7E83878889881D
:104A90008687807B7A787B7E7F81818382817D7B24
:104AA0007F81807E7B7C7B7B7F7E7D7E7F7D7D7F2B
:104AB00080807F8083848484817D7D7B7A7F8184F4
:104AC000848383818183838385878684807B7C7BC9
:104AD0007A7E7E7C7D7F7E808382807E7E838586DB
:104AE00085817D7E7D7B7E7F7E7D7C7D7E818585D3
:104AF000848585817C7773777A7B808384878784BC
:104B0000848482807F7F828383827C7A7A79787BB7
:104B10007C7C7C7B8083848483828182817D7974A8
:104B2000787C7C8082838484807E7F7E7D7E7D8095
:104B3000838484807F807E7C7E808080808283826C
:104B4000818282848684807B777A7D7D8083848461
:104B500083807E7D7A7979797D8082817D7D7E7B7F
:104B6000797B7E7F7E7E808689898B8A8B8B888607
:104B7000817E7E807E7C7E7C7B7B7A7A797A7A7A73
:104B80007C808384817B787A7A787B7D7F80818347
:104B90008789898988898886837D797A7A797A7EF6
:104BA0007F7D7E7F8080818281807F7F807D77771F
:104BB000797C7D7E808283838487898988898A88BD
:104BC0008580787375767677797B7A7A7B7D7E7C43
:104BD0007E7F80828385837F7E7F808080828485C4
:104BE000868788878886858683817C7673737678C6
:104BF000797A7C7C7B7C7D7C7B7F808284858682CD
:104C00007D7B7A7A7D7F808282858B8B888A8A8978
:104C10008A8685827E78767B7A73707475777F83D7
:104C2000817B808486908A807C7C7674797B7D838E
:104C3000878486898581848C8B877E797270757B69
:104C40007F777A83888B85848A858080807F7B7A52
:104C500077787A7A787A7C7B7C7C7B7E7F83858C84
:104C6000918A878586847A797E7974767D7A787D53
:104C7000828786837E7A7C7C7E7A7976777878865E
:104C8000868687848B918B898D8B838281777170E7
:104C9000767A797C7C7B77737A797B777B79788875
:104CA00089827D777C8382838A8C858688878383CB
:104CB0008486888B8A887D79787C7F787975767D03
:104CC000797D7D787F8586828D8E827D7976787CF0
:104CD0007B7C838485847F7E7C7F7E7E82808084D3
:104CE000807F7C7D82858685898480807E7B7B7DBC
:104CF0007B7E858180787675777A74787A757A810B
:104D000085878482838D8E8A8B857E7D7F7F7B7B6A
:104D10007879777A83807E7A7E82828A877F7C7CAC
:104D200080828077798386898F908C8A8B8786842E
:104D30007C7B767A7C7E7E787777757A797A7D7AD5
:104D40007D83837D81827D7B7D807E7E7C787E807D
:104D50008385868A8A8D8C8686837E817D7A797A20
:104D60007D7F7C797B8082848586818381807C7550
:104D7000767272767C817F7C8383858A8B89858538
:104D8000888D897F7F807D7F8387838181807E7C02
:104D90007D7B7777797E7B77777676797B7B7C7B7B
:104DA0007D898D888A8D8F8A90938F8A82807A758B
:104DB00077747473727D7A7A797777777A7C7E7D6F
:104DC0007C81847F7C7F7F8087898E8F8E8F8D8C86
:104DD0008683837C7B7C7B7874747475777577733A
:104DE000757C7F7D797F82848788878785837E80B5
:104DF0007E7F7F7C848B8E8F908A88868383837A64
:104E000077767A77707474757980858688868286DD
:104E10007F807E767A7C7A7D7D7C7D7C7D838684B6
:104E200084898A878583807E7C7B7C7D807A7D7E79
:104E3000797D7F7C7D828280817E7B7C787D7D78A0
:104E4000787C807E7E808184858C8F8D8C85858327
:104E50007C7A77727377757B7E777C7C7B7F8484AA
:104E60007E8387858481807B7880858A8986868811
:104E7000868482817E7B7C81847F7C7A787B7F794B
:104E8000797C7D7E817F81818385858986837F7C16
:104E900078777778787C7E82878788848483848219
:104EA0007F8382817E7A7C76797C7D828286858210
:104EB00082827E797876787B7A7877767678817F49
:104EC0007B83878B888C877E7F80818383848382AA
:104ED0008082837E7D797E7F7F8384807A7A8080E2
:104EE0007B787776777B7C7E7E8087909090938CA2
:104EF00082837E7C7774747377787C7E79787D7E0C
:104F00007E7D8487848383817F7E7C7D7E82888989
:104F10008889868586818185827D7E7E78767A798C
:104F2000716F757A7C817E7F807D7F88888586839E
:104F30008181817D7A757A7B7E8286868487878B64
:104F400088807E7F81817D807A7172797D8087847F
:104F50008384848384827C797D7D81847E77777D60
:104F60007D7B7F7F8083868585847F807F81848130
:104F700084807A7B7D7B777C7D7C8384838484863C
:104F8000807F7E7E7F7E79777B76787F7D838B8A3C
:104F90008B8C8D86837C767876787776797B7A7F32
:104FA0007F7F7E7C7F8386888781828383868481DE
:104FB00080807E7D827F7E808282848885807D7EE7
:104FC000807E7C7674787C80807C807E7D81868A01
:104FD000878A8482837E7A7573727A7D7C7C7F85F2
:104FE00088878684878683858583837C78757C82A1
:104FF0007F817D81837D7B7C7D7A7C7F7B7B7D7FD8
:105000007D7A7B7C7E7E7E82838283818386898992
:1050100087898887847D77797B7676787C7D7C7EAE
:1050200081828081837E8086847F7C7D7B7D808180
:10503000838A898B8E898783817B7C82817A747352
:10504000767977757574787F828385848688878B77
:105050008C888581848480807D7C7F858685837F24
:10506000808079797E7A76737275787773747A80B6
:1050700086898A8B8C8A8785837D797B7B7C817E00
:10508000808281868785838481807E7B79797B7825
:1050900078787C7F807E7A7D7F7F81858383828024
:1050A000858683827F7B7C82807D7F7D7D7F7F8004
:1050B00084807E7F82827F7E7C76737B7E7F7E7C17
:1050C000808485898984838587868882817B7378BB
:1050D0007F817A7C80838384867D78777B7F807CE8
:1050E0007D7C77767A7E797D7C82858488898485CB
:1050F0008A8D8F8D8B85817B7B797774767D7D80A2
:105100008387817F7D7B7C7F7C7B7B77787C7D7CCC
:105110007E8284848A8E8C898883807F7F80797662
:1051200072747A7D7D7A7F8384888986827E7A7D97
:105130008284808082858485837C79777A7F81816F
:105140007D7E7E7D81807F7B7777797D807D78789D
:105150007E848787898982838688867E7D7E7F7F1D
:105160007D7D7B7C7D7D7F7F80807F7F8184827D54
:105170007A7B7D7A8083817F7F8486848386858223
:10518000808183837E77787B7A797C7E7E7B787959
:105190007C82827F83898C8C8A86817D797B7E7DEF
:1051A0007F7E7F85898685847E7B7D7F807B75730E
:1051B000777F7D7A7E81807F8284827E7A7A7C7F0F
:1051C00082807D7B7B7D7F7F7F828485898C8780C9
:1051D0007E817F7E8488857F7D82857C74787A79E4
:1051E0007A7A7A7B7C7B7A7C7F81817D7D818581E7
:1051F0007C7E808384858A89868786807D7E817F88
:105200007B797D817F7B7D7D7F7F7E7E7B807F7CC8
:10521000797E8181807F8587878684828082808174
:10522000827F7D7E7E7D7B7E7C77777B7F818079B0
:10523000767B7D7E7D7F85848387898884817D8060
:1052400084848480828386867F7D7B7B7B7E7F7A5D
:105250007B7C79797D8385837F7E83837F79757974
:105260007B7C7E7F8180807E808282848284868334
:10527000837F7C7E7E7E8386828589848381807C19
:10528000797A7674777B78777A7C7E82828586835A
:105290007F7E7E7F8181858483888783807F7C7BFE
:1052A0007E7E7F7F7E808082807A7D79737B838221
:1052B0007D7F8181828285858283848585838182C9
:1052C00082807F7E7C787B7D7C7A7C7B777A7F8115
:1052D000807C787C7C797E848484888B88878481B8
:1052E000807F7F80808080818585807B797D7E80C6
:1052F0007E7A797979777B80808283858889827DBF
:105300007E7E7C7D7E7D7D7F7C7C7E7A787B8183CA
:10531000858889877F7D82858381818181827F7E67
:105320007E7E7F7C7B7D81827C7A7B7D7D7D7E80A5
:10533000807B7D8079777C828183898F8D85818058
:10534000827F7B7A7A787B7F7E7C7D7E7B797F898A
:105350008A828081828281817F7D7C8286847F7D3A
:105360007E7D7D8487837D7E8084847E7A76767957
:105370007E7E7E7E7C7B7B8186878683878B8B8609
:10538000807E7A7A7B7B7B78797D7F808484808144
:10539000838387877F787678797D82838383837E12
:1053A000818382817C7B7E82807A79767776767B38
:1053B0007B7D8184838688878686898D8E8A84809A
:1053C000817F7E81807A7879797C7E7F7F78797F12
:1053D00084817D7C7A7C7A7C7E7C7E8184888A8ACA
:1053E000888584878885807C7A7D7D7D807D7879BD
:1053F0007D7E8082827E7A7D828583807E818682A8
:10540000807C797A7C7D7F82818383858987817D99
:105410007B7A7D7F7D7D7B77797A7A7A7B818283C7
:1054200087898783807B7E807D7D797A7E7D7D7F85
:1054300083828487888A86817D7B7C7F8082817E4F
:105440007B7A797978787B797C818483807C7679A2
:105450007D7B7D7C8082818282848385898E92900F
:105460008A847F807F7C7A78767576797B79777984
:10547000797D858A88837F7C7F7F7E7E7D82878819
:105480008A8886848384858785807A7A7E7E7B7B02
:105490007B7A7B7F82817E7E7E7E82898B888583FC
:1054A0008385817D7A787B7C80827F8080807E800E
:1054B00082807D7A7B7F7D7B7A787776797E7F812B
:1054C000848482848A89817C7B7D7F7D7C7A777AE3
:1054D0007C808281848582838685827F7B7E8281B7
:1054E0007F7C797674787A7A7E81807E8389837BEB
:1054F00077777A7E81807F808284858380828485AD
:105500008A90918A86827F817E7A777577787A7B96
:105510007A7C7E7E7F8589847E7D7E7F8083807F8E
:10552000828788848481807E7A7D81817D7D7D7B78
:105530007F7F7A787B7F7F80807F847D7987919061
:1055400089878D97958A847B726F69636974767891
:105550007E828D91877D7A76707170717A81878B6A
:105560008B8F8F857B76797B7D7B7E878D8D898404
:105570007D7674736B758787807F8A9EA38A7E7F12
:105580007C787264606C747B838993978B7C78756C
:10559000706D69697A8D989B908A847A75726F753F
:1055A0007D8C938EA1AC9E8D85838D8E827D79714D
:1055B000716E5E5D6A6E717A859290837F7F808165
:1055C0007973757A7C8284858B887C74777E7D780C
:1055D0007F7578959989888990A29B888581776C59
:1055E0005E5D70796F7183949B8F7B74716D666162
:1055F0005F7082868A97A3A08F7E75757676807697
:105600007796A2948A8A929B8D797C7A6D63595B96
:10561000707F7D7D889298958A857F7063666A72B7
:105620007F828A9699999189807E75757B778A9A0F
:105630008A7B808D9C947B76817B695A51586471FA
:10564000757E96A9A79F9891816D5F5A5D697C8E42
:105650009A9B9794867C746E6B6170898B81828E25
:10566000A3ABA69B948C7556444E5D64697690A559
:10567000A79F968B79634F4F5E6C77859AAAA8A0F7
:10568000989081716D6A7488877D7F8EA6AA9E9995
:105690009A8A715B494E555661718BA3A49B969370
:1056A000856E5954595B617488949C9E9C96877C46
:1056B00078717C857A757F92A2A09EA8A9947A6859
:1056C00057504A45516D899095A3ADA5907F736859
:1056D0005E5B626A767D888E92918D867E87877802
:1056E000747E8A928F98A7AAA08F817565534952BC
:1056F000616E7984959C968C8882776D6B6D6E70E7
:1057000074778493918C8E999F8F7F83888684820F
:10571000878C867D766E6A666364676D747A87941B
:10572000928B8E8F867D7A7C7A7775757B7F7C767F
:105730007C8791918B8A8A8C9191918D8780786DED
:1057400063646B6D6C737A7D8183808284848581D0
:105750007C7B787B8082827F7F818281878C8D8D2C
:105760008E9091948E867F797A736C6E757674794B
:105770007D807C7C7C7673787D7A777D807F828368
:10578000847F7E848685858383868C91938E8D8CA1
:10579000827C7C7B797A7B75777C7F7D787A7A785E
:1057A00079797571747A8185848788868284888303
:1057B0007E7D7E7F8387837D7F828385857F7E82DA
:1057C00086848182817F7D797A7F807F7A79797CF6
:1057D000817E78787F827E81817E7D8489878989B8
:1057E0008A82797B7F7F7E7F81868887867F7A7CAD
:1057F000797878787776797D8283878881808484C8
:1058000082807D797C81848380817F7D7E80807EA3
:105810007C7F85868587857E79787A7B7A777474B4
:105820007A807E7D7F8084898B8883807F8382825B
:105830008485827B7D7F8182837E797C83837B7973
:105840007C7C7C7E7F7A76797C7C7B8187847F827E
:10585000858988837F7D7F7F7F797778777A7E805F
:105860008084888887878B897F7C7C7C7E84807914
:1058700076797C7774787B7D7F8285878786898738
:105880008689898279747478797D8486888B8A8701
:10589000827D7877777878747477777A8084848358
:1058A0008786858589867F8588888787867F7B7BB5
:1058B0007D77747A8181808486847D7677797A7920
:1058C0007675777B7B77787B8086888886878887E4
:1058D00086878B8C8B8A837E7E7F7972747C807EB8
:1058E0007C7E807D7A7C7E7E79797B797C80827FEC
:1058F0007D82858483858683838483807E7D7C7C92
:105900007D81807B7C808384838382807D7C7D819C
:10591000847D787A7D7E7C7A7A7B7F8285818185A1
:10592000868484888A88827E7C797B7B78797E876E
:105930008986837F7D79797979787674757B83859B
:105940008786888A8A8A8583808183838485848107
:105950007D7F817C75767A787E86888480807C7B6A
:105960007C7F7E78787A7C7D7C7B7C7E848A8B854C
:1059700086878483828686837F7B797B7D77767A30
:105980007C8389878483807F7F7D7E807A787A7F1D
:105990008483807E7C7D83837E81848381808181FA
:1059A0007D78797B7B7A78797A7A848D8D8D8F8CEE
:1059B000878584827D767675767B7E7B767980811D
:1059C0007E7E83838082838789847E7B7C7D7E79D3
:1059D0007A7E8186868685838483807C7D7B7474D1
:1059E00076787D81817C7B838682808484848383B6
:1059F00087878381807D7D7E7B78797C82828285AA
:105A00008281808180817E797977757A7A77797CD5
:105A1000828486888A878586838789837C7C7D7D4E
:105A20007D7D7B7D7E82847F81828280817B80827E
:105A30007B797E7C80817D74717C7D81828684828D
:105A400084847F817E7E7C7A7C7F807B7E8184865D
:105A50008A86848485818080827D7A7E7A7B7B774A
:105A60007274767A7F858385858688898881807E31
:105A70007F7E7F7F7F7C81807D8084847F7F7C7F31
:105A80007E7D7C7D8186898A847D7E7F7D7C83820C
:105A90007F8183828080807D7775797A767775774C
:105AA000787A8085848386898B8C8A868887847FB0
:105AB0007F7B7674706D6E73726E727B838482836B
:105AC0008382808086827E7D7F7F7C8486848890AE
:105AD00095989CA09A928B887A675B585A5859641B
